{
  "contractName": "League",
  "abi": [
    {
      "constant": true,
      "inputs": [
        {
          "name": "",
          "type": "uint256"
        }
      ],
      "name": "teams",
      "outputs": [
        {
          "name": "",
          "type": "address"
        }
      ],
      "payable": false,
      "stateMutability": "view",
      "type": "function",
      "signature": "0x3ed2b77a"
    },
    {
      "constant": true,
      "inputs": [
        {
          "name": "",
          "type": "address"
        }
      ],
      "name": "teamsMap",
      "outputs": [
        {
          "name": "wins",
          "type": "uint8"
        },
        {
          "name": "loses",
          "type": "uint8"
        },
        {
          "name": "ties",
          "type": "uint8"
        }
      ],
      "payable": false,
      "stateMutability": "view",
      "type": "function",
      "signature": "0xc972a6da"
    },
    {
      "constant": true,
      "inputs": [],
      "name": "league",
      "outputs": [
        {
          "name": "",
          "type": "address"
        }
      ],
      "payable": false,
      "stateMutability": "view",
      "type": "function",
      "signature": "0xd9b29297"
    },
    {
      "constant": true,
      "inputs": [
        {
          "name": "",
          "type": "address"
        },
        {
          "name": "",
          "type": "uint256"
        }
      ],
      "name": "seasonSchedule",
      "outputs": [
        {
          "name": "",
          "type": "uint8"
        }
      ],
      "payable": false,
      "stateMutability": "view",
      "type": "function",
      "signature": "0xdd6a891a"
    },
    {
      "inputs": [
        {
          "name": "_league",
          "type": "address"
        },
        {
          "name": "_teams",
          "type": "address[10]"
        }
      ],
      "payable": false,
      "stateMutability": "nonpayable",
      "type": "constructor",
      "signature": "constructor"
    },
    {
      "constant": false,
      "inputs": [
        {
          "name": "_week",
          "type": "uint8"
        },
        {
          "name": "_qbId",
          "type": "uint256"
        },
        {
          "name": "_rbId",
          "type": "uint256"
        },
        {
          "name": "_wr1Id",
          "type": "uint256"
        },
        {
          "name": "_wr2Id",
          "type": "uint256"
        },
        {
          "name": "_teId",
          "type": "uint256"
        },
        {
          "name": "_flexId",
          "type": "uint256"
        },
        {
          "name": "_kId",
          "type": "uint256"
        },
        {
          "name": "_defId",
          "type": "uint256"
        },
        {
          "name": "sender",
          "type": "address"
        }
      ],
      "name": "setRoster",
      "outputs": [],
      "payable": false,
      "stateMutability": "nonpayable",
      "type": "function",
      "signature": "0x4a9140c5"
    },
    {
      "constant": false,
      "inputs": [
        {
          "name": "_week",
          "type": "uint8"
        },
        {
          "name": "_teamScore",
          "type": "uint8"
        },
        {
          "name": "_opponentScore",
          "type": "uint8"
        }
      ],
      "name": "setScores",
      "outputs": [],
      "payable": false,
      "stateMutability": "nonpayable",
      "type": "function",
      "signature": "0xd22bc5e4"
    },
    {
      "constant": false,
      "inputs": [
        {
          "name": "_team",
          "type": "address"
        },
        {
          "name": "_week",
          "type": "uint8"
        }
      ],
      "name": "validateGame",
      "outputs": [],
      "payable": false,
      "stateMutability": "nonpayable",
      "type": "function",
      "signature": "0xf6b2839a"
    },
    {
      "constant": true,
      "inputs": [
        {
          "name": "_team",
          "type": "address"
        },
        {
          "name": "_week",
          "type": "uint8"
        }
      ],
      "name": "getGame",
      "outputs": [
        {
          "name": "",
          "type": "uint8"
        },
        {
          "name": "",
          "type": "uint8"
        }
      ],
      "payable": false,
      "stateMutability": "view",
      "type": "function",
      "signature": "0x701fe18b"
    },
    {
      "constant": true,
      "inputs": [
        {
          "name": "_team",
          "type": "address"
        }
      ],
      "name": "teamSnapshot",
      "outputs": [
        {
          "name": "",
          "type": "uint8"
        },
        {
          "name": "",
          "type": "uint8"
        },
        {
          "name": "",
          "type": "uint8"
        },
        {
          "name": "",
          "type": "uint8[16]"
        }
      ],
      "payable": false,
      "stateMutability": "view",
      "type": "function",
      "signature": "0x8e0ec708"
    },
    {
      "constant": true,
      "inputs": [],
      "name": "leagueSnapshot",
      "outputs": [
        {
          "name": "",
          "type": "address[10]"
        }
      ],
      "payable": false,
      "stateMutability": "view",
      "type": "function",
      "signature": "0x9acfe5c0"
    }
  ],
  "bytecode": "0x60806040523480156200001157600080fd5b5060405161016080620020ab83398101806040526101608110156200003557600080fd5b81019080805190602001909291909190505081600260006101000a81548173ffffffffffffffffffffffffffffffffffffffff021916908373ffffffffffffffffffffffffffffffffffffffff16021790555080600390600a6200009b92919062000d87565b5060008090505b600a8160ff161015620001bd57606060405190810160405280600060ff168152602001600060ff168152602001600060ff1681525060008060038460ff16600a81101515620000ed57fe5b0160009054906101000a900473ffffffffffffffffffffffffffffffffffffffff1673ffffffffffffffffffffffffffffffffffffffff1673ffffffffffffffffffffffffffffffffffffffff16815260200190815260200160002060008201518160000160006101000a81548160ff021916908360ff16021790555060208201518160000160016101000a81548160ff021916908360ff16021790555060408201518160000160026101000a81548160ff021916908360ff1602179055509050508080600101915050620000a2565b5061020060405190810160405280600160ff168152602001600660ff168152602001600260ff168152602001600760ff168152602001600360ff168152602001600860ff168152602001600460ff168152602001600960ff168152602001600560ff168152602001600160ff168152602001600660ff168152602001600260ff168152602001600760ff168152602001600360ff168152602001600860ff168152602001600460ff168152506001600060036000600a811015156200027e57fe5b0160009054906101000a900473ffffffffffffffffffffffffffffffffffffffff1673ffffffffffffffffffffffffffffffffffffffff1673ffffffffffffffffffffffffffffffffffffffff168152602001908152602001600020906010620002ea92919062000e09565b5061020060405190810160405280600060ff168152602001600260ff168152602001600360ff168152602001600460ff168152602001600560ff168152602001600660ff168152602001600760ff168152602001600860ff168152602001600960ff168152602001600060ff168152602001600260ff168152602001600360ff168152602001600460ff168152602001600560ff168152602001600660ff168152602001600760ff168152506001600060036001600a81101515620003ab57fe5b0160009054906101000a900473ffffffffffffffffffffffffffffffffffffffff1673ffffffffffffffffffffffffffffffffffffffff1673ffffffffffffffffffffffffffffffffffffffff1681526020019081526020016000209060106200041792919062000e09565b5061020060405190810160405280600960ff168152602001600160ff168152602001600060ff168152602001600360ff168152602001600460ff168152602001600560ff168152602001600660ff168152602001600760ff168152602001600860ff168152602001600960ff168152602001600160ff168152602001600060ff168152602001600360ff168152602001600460ff168152602001600560ff168152602001600660ff168152506001600060036002600a81101515620004d857fe5b0160009054906101000a900473ffffffffffffffffffffffffffffffffffffffff1673ffffffffffffffffffffffffffffffffffffffff1673ffffffffffffffffffffffffffffffffffffffff1681526020019081526020016000209060106200054492919062000e09565b5061020060405190810160405280600860ff168152602001600960ff168152602001600160ff168152602001600260ff168152602001600060ff168152602001600460ff168152602001600560ff168152602001600660ff168152602001600760ff168152602001600860ff168152602001600960ff168152602001600160ff168152602001600260ff168152602001600060ff168152602001600460ff168152602001600560ff1681525060016000600380600a811015156200060457fe5b0160009054906101000a900473ffffffffffffffffffffffffffffffffffffffff1673ffffffffffffffffffffffffffffffffffffffff1673ffffffffffffffffffffffffffffffffffffffff1681526020019081526020016000209060106200067092919062000e09565b5061020060405190810160405280600760ff168152602001600860ff168152602001600960ff168152602001600160ff168152602001600260ff168152602001600360ff168152602001600060ff168152602001600560ff168152602001600660ff168152602001600760ff168152602001600860ff168152602001600960ff168152602001600160ff168152602001600260ff168152602001600360ff168152602001600060ff168152506001600060036004600a811015156200073157fe5b0160009054906101000a900473ffffffffffffffffffffffffffffffffffffffff1673ffffffffffffffffffffffffffffffffffffffff1673ffffffffffffffffffffffffffffffffffffffff1681526020019081526020016000209060106200079d92919062000e09565b5061020060405190810160405280600660ff168152602001600760ff168152602001600860ff168152602001600960ff168152602001600160ff168152602001600260ff168152602001600360ff168152602001600460ff168152602001600060ff168152602001600660ff168152602001600760ff168152602001600860ff168152602001600960ff168152602001600160ff168152602001600260ff168152602001600360ff168152506001600060036005600a811015156200085e57fe5b0160009054906101000a900473ffffffffffffffffffffffffffffffffffffffff1673ffffffffffffffffffffffffffffffffffffffff1673ffffffffffffffffffffffffffffffffffffffff168152602001908152602001600020906010620008ca92919062000e09565b5061020060405190810160405280600560ff168152602001600060ff168152602001600760ff168152602001600860ff168152602001600960ff168152602001600160ff168152602001600260ff168152602001600360ff168152602001600460ff168152602001600560ff168152602001600060ff168152602001600760ff168152602001600860ff168152602001600960ff168152602001600160ff168152602001600260ff168152506001600060036006600a811015156200098b57fe5b0160009054906101000a900473ffffffffffffffffffffffffffffffffffffffff1673ffffffffffffffffffffffffffffffffffffffff1673ffffffffffffffffffffffffffffffffffffffff168152602001908152602001600020906010620009f792919062000e09565b5061020060405190810160405280600460ff168152602001600560ff168152602001600660ff168152602001600060ff168152602001600860ff168152602001600960ff168152602001600160ff168152602001600260ff168152602001600360ff168152602001600460ff168152602001600560ff168152602001600660ff168152602001600060ff168152602001600860ff168152602001600960ff168152602001600160ff168152506001600060036007600a8110151562000ab857fe5b0160009054906101000a900473ffffffffffffffffffffffffffffffffffffffff1673ffffffffffffffffffffffffffffffffffffffff1673ffffffffffffffffffffffffffffffffffffffff16815260200190815260200160002090601062000b2492919062000e09565b5061020060405190810160405280600360ff168152602001600460ff168152602001600560ff168152602001600660ff168152602001600760ff168152602001600060ff168152602001600960ff168152602001600160ff168152602001600260ff168152602001600360ff168152602001600460ff168152602001600560ff168152602001600660ff168152602001600760ff168152602001600060ff168152602001600960ff168152506001600060036008600a8110151562000be557fe5b0160009054906101000a900473ffffffffffffffffffffffffffffffffffffffff1673ffffffffffffffffffffffffffffffffffffffff1673ffffffffffffffffffffffffffffffffffffffff16815260200190815260200160002090601062000c5192919062000e09565b5061020060405190810160405280600260ff168152602001600360ff168152602001600460ff168152602001600560ff168152602001600660ff168152602001600760ff168152602001600860ff168152602001600060ff168152602001600160ff168152602001600260ff168152602001600360ff168152602001600460ff168152602001600560ff168152602001600660ff168152602001600760ff168152602001600860ff168152506001600060036009600a8110151562000d1257fe5b0160009054906101000a900473ffffffffffffffffffffffffffffffffffffffff1673ffffffffffffffffffffffffffffffffffffffff1673ffffffffffffffffffffffffffffffffffffffff16815260200190815260200160002090601062000d7e92919062000e09565b50505062000f23565b82600a810192821562000df6579160200282015b8281111562000df55782518260006101000a81548173ffffffffffffffffffffffffffffffffffffffff021916908373ffffffffffffffffffffffffffffffffffffffff1602179055509160200191906001019062000d9b565b5b50905062000e05919062000eaa565b5090565b826010601f0160209004810192821562000e975791602002820160005b8382111562000e6657835183826101000a81548160ff021916908360ff160217905550926020019260010160208160000104928301926001030262000e26565b801562000e955782816101000a81549060ff021916905560010160208160000104928301926001030262000e66565b505b50905062000ea6919062000ef0565b5090565b62000eed91905b8082111562000ee957600081816101000a81549073ffffffffffffffffffffffffffffffffffffffff02191690555060010162000eb1565b5090565b90565b62000f2091905b8082111562000f1c57600081816101000a81549060ff02191690555060010162000ef7565b5090565b90565b6111788062000f336000396000f3fe6080604052600436106100a4576000357c0100000000000000000000000000000000000000000000000000000000900463ffffffff1680633ed2b77a146100a95780634a9140c514610124578063701fe18b146101d35780638e0ec708146102585780639acfe5c01461030c578063c972a6da1461035f578063d22bc5e4146103e4578063d9b292971461043c578063dd6a891a14610493578063f6b2839a14610508575b600080fd5b3480156100b557600080fd5b506100e2600480360360208110156100cc57600080fd5b8101908080359060200190929190505050610566565b604051808273ffffffffffffffffffffffffffffffffffffffff1673ffffffffffffffffffffffffffffffffffffffff16815260200191505060405180910390f35b34801561013057600080fd5b506101d1600480360361014081101561014857600080fd5b81019080803560ff1690602001909291908035906020019092919080359060200190929190803590602001909291908035906020019092919080359060200190929190803590602001909291908035906020019092919080359060200190929190803573ffffffffffffffffffffffffffffffffffffffff16906020019092919050505061059b565b005b3480156101df57600080fd5b5061022f600480360360408110156101f657600080fd5b81019080803573ffffffffffffffffffffffffffffffffffffffff169060200190929190803560ff1690602001909291905050506108a7565b604051808360ff1660ff1681526020018260ff1660ff1681526020019250505060405180910390f35b34801561026457600080fd5b506102a76004803603602081101561027b57600080fd5b81019080803573ffffffffffffffffffffffffffffffffffffffff169060200190929190505050610936565b604051808560ff1660ff1681526020018460ff1660ff1681526020018360ff1660ff16815260200182601060200280838360005b838110156102f65780820151818401526020810190506102db565b5050505090500194505050505060405180910390f35b34801561031857600080fd5b50610321610a6f565b6040518082600a60200280838360005b8381101561034c578082015181840152602081019050610331565b5050505090500191505060405180910390f35b34801561036b57600080fd5b506103ae6004803603602081101561038257600080fd5b81019080803573ffffffffffffffffffffffffffffffffffffffff169060200190929190505050610af0565b604051808460ff1660ff1681526020018360ff1660ff1681526020018260ff1660ff168152602001935050505060405180910390f35b3480156103f057600080fd5b5061043a6004803603606081101561040757600080fd5b81019080803560ff169060200190929190803560ff169060200190929190803560ff169060200190929190505050610b41565b005b34801561044857600080fd5b50610451610c1e565b604051808273ffffffffffffffffffffffffffffffffffffffff1673ffffffffffffffffffffffffffffffffffffffff16815260200191505060405180910390f35b34801561049f57600080fd5b506104ec600480360360408110156104b657600080fd5b81019080803573ffffffffffffffffffffffffffffffffffffffff16906020019092919080359060200190929190505050610c44565b604051808260ff1660ff16815260200191505060405180910390f35b34801561051457600080fd5b506105646004803603604081101561052b57600080fd5b81019080803573ffffffffffffffffffffffffffffffffffffffff169060200190929190803560ff169060200190929190505050610c7c565b005b600381600a8110151561057557fe5b016000915054906101000a900473ffffffffffffffffffffffffffffffffffffffff1681565b600260009054906101000a900473ffffffffffffffffffffffffffffffffffffffff1673ffffffffffffffffffffffffffffffffffffffff163373ffffffffffffffffffffffffffffffffffffffff161415156105f757600080fd5b60c0604051908101604052806003600160008573ffffffffffffffffffffffffffffffffffffffff1673ffffffffffffffffffffffffffffffffffffffff1681526020019081526020016000208d60ff1660108110151561065457fe5b602091828204019190069054906101000a900460ff1660ff16600a8110151561067957fe5b0160009054906101000a900473ffffffffffffffffffffffffffffffffffffffff1673ffffffffffffffffffffffffffffffffffffffff168152602001600060ff168152602001600060ff168152602001600060ff168152602001600015158152602001610100604051908101604052808c81526020018b81526020018a8152602001898152602001888152602001878152602001868152602001858152508152506000808373ffffffffffffffffffffffffffffffffffffffff1673ffffffffffffffffffffffffffffffffffffffff16815260200190815260200160002060010160008c60ff1660ff16815260200190815260200160002060008201518160000160006101000a81548173ffffffffffffffffffffffffffffffffffffffff021916908373ffffffffffffffffffffffffffffffffffffffff16021790555060208201518160000160146101000a81548160ff021916908360ff16021790555060408201518160000160156101000a81548160ff021916908360ff16021790555060608201518160000160166101000a81548160ff021916908360ff16021790555060808201518160000160176101000a81548160ff02191690831515021790555060a082015181600101600082015181600001556020820151816001015560408201518160020155606082015181600301556080820151816004015560a0820151816005015560c0820151816006015560e08201518160070155505090505050505050505050505050565b60008060008060008673ffffffffffffffffffffffffffffffffffffffff1673ffffffffffffffffffffffffffffffffffffffff16815260200190815260200160002060010160008560ff1660ff16815260200190815260200160002090508060000160149054906101000a900460ff168160000160159054906101000a900460ff1692509250509250929050565b6000806000610943611104565b60008060008773ffffffffffffffffffffffffffffffffffffffff1673ffffffffffffffffffffffffffffffffffffffff16815260200190815260200160002090508060000160009054906101000a900460ff168160000160019054906101000a900460ff168260000160029054906101000a900460ff16600160008a73ffffffffffffffffffffffffffffffffffffffff1673ffffffffffffffffffffffffffffffffffffffff16815260200190815260200160002080601080602002604051908101604052809291908260108015610a58576020028201916000905b82829054906101000a900460ff1660ff1681526020019060010190602082600001049283019260010382029150808411610a215790505b505050505090509450945094509450509193509193565b610a77611128565b6003600a806020026040519081016040528092919082600a8015610ae6576020028201915b8160009054906101000a900473ffffffffffffffffffffffffffffffffffffffff1673ffffffffffffffffffffffffffffffffffffffff1681526020019060010190808311610a9c575b5050505050905090565b60006020528060005260406000206000915090508060000160009054906101000a900460ff16908060000160019054906101000a900460ff16908060000160029054906101000a900460ff16905083565b60008060003373ffffffffffffffffffffffffffffffffffffffff1673ffffffffffffffffffffffffffffffffffffffff16815260200190815260200160002060010160008560ff1660ff1681526020019081526020016000209050600015158160000160179054906101000a900460ff161515141515610bc157600080fd5b828160000160146101000a81548160ff021916908360ff160217905550818160000160156101000a81548160ff021916908360ff16021790555060018160000160176101000a81548160ff02191690831515021790555050505050565b600260009054906101000a900473ffffffffffffffffffffffffffffffffffffffff1681565b600160205281600052604060002081601081101515610c5f57fe5b60209182820401919006915091509054906101000a900460ff1681565b8173ffffffffffffffffffffffffffffffffffffffff163373ffffffffffffffffffffffffffffffffffffffff1614151515610cb757600080fd5b60008060008473ffffffffffffffffffffffffffffffffffffffff1673ffffffffffffffffffffffffffffffffffffffff16815260200190815260200160002060010160008360ff1660ff1681526020019081526020016000209050600115158160000160179054906101000a900460ff161515141515610d3757600080fd5b6000808260000160009054906101000a900473ffffffffffffffffffffffffffffffffffffffff1673ffffffffffffffffffffffffffffffffffffffff1673ffffffffffffffffffffffffffffffffffffffff16815260200190815260200160002060010160008360ff1660ff16815260200190815260200160002060000160159054906101000a900460ff1660ff168160000160149054906101000a900460ff1660ff16141515610de857600080fd5b6000808260000160009054906101000a900473ffffffffffffffffffffffffffffffffffffffff1673ffffffffffffffffffffffffffffffffffffffff1673ffffffffffffffffffffffffffffffffffffffff16815260200190815260200160002060010160008360ff1660ff16815260200190815260200160002060000160149054906101000a900460ff1660ff168160000160159054906101000a900460ff1660ff16141515610e9957600080fd5b60018160090160003373ffffffffffffffffffffffffffffffffffffffff1673ffffffffffffffffffffffffffffffffffffffff16815260200190815260200160002060006101000a81548160ff02191690831515021790555080600001601681819054906101000a900460ff168092919060010191906101000a81548160ff021916908360ff1602179055505060098160000160169054906101000a900460ff1660ff1614156110ff578060000160159054906101000a900460ff1660ff168160000160149054906101000a900460ff1660ff161415610fe6576000808473ffffffffffffffffffffffffffffffffffffffff1673ffffffffffffffffffffffffffffffffffffffff168152602001908152602001600020600001600281819054906101000a900460ff168092919060010191906101000a81548160ff021916908360ff160217905550505b8060000160159054906101000a900460ff1660ff168160000160149054906101000a900460ff1660ff16111561108c576000808473ffffffffffffffffffffffffffffffffffffffff1673ffffffffffffffffffffffffffffffffffffffff168152602001908152602001600020600001600081819054906101000a900460ff168092919060010191906101000a81548160ff021916908360ff160217905550506110fe565b6000808473ffffffffffffffffffffffffffffffffffffffff1673ffffffffffffffffffffffffffffffffffffffff168152602001908152602001600020600001600181819054906101000a900460ff168092919060010191906101000a81548160ff021916908360ff160217905550505b5b505050565b61020060405190810160405280601090602082028038833980820191505090505090565b61014060405190810160405280600a9060208202803883398082019150509050509056fea165627a7a72305820bc66e67f27e9dd4d9591434cb2261768a0e4a4972513367b4edce40b432ab1720029",
  "source": "pragma solidity ^0.5.0;\n\ncontract League {\n\n  struct Team {\n    uint8 wins;\n    uint8 loses;\n    uint8 ties;\n    mapping(uint8 => Game) schedule;\n  }\n\n  struct Roster {\n    uint256 QB;\n    uint256 RB;\n    uint256 WR1;\n    uint256 WR2;\n    uint256 TE;\n    uint256 FLEX;\n    uint256 K;\n    uint256 DEF;\n  }\n\n  struct Game {\n    address opponent;\n    uint8 teamScore;\n    uint8 opponentScore;\n    uint8 approvalCount;\n    bool scoresSet;\n    Roster roster;\n    mapping(address => bool) approvals;\n  }\n\n  mapping(address => Team) public teamsMap;\n  mapping(address => uint8[16]) public seasonSchedule;\n\n  address public league;\n  address[10] public teams;\n\n  constructor(address _league, address[10] memory _teams) public {\n    league = _league;\n    teams = _teams;\n    for (uint8 i=0; i<teams.length; i++) {\n      teamsMap[teams[i]] = Team({\n        wins: 0,\n        loses: 0,\n        ties: 0\n      });\n    }\n    seasonSchedule[teams[0]] = [1, 6, 2, 7, 3, 8, 4, 9, 5, 1, 6, 2, 7, 3, 8, 4];\n    seasonSchedule[teams[1]] = [0, 2, 3, 4, 5, 6, 7, 8, 9, 0, 2, 3, 4, 5, 6, 7];\n    seasonSchedule[teams[2]] = [9, 1, 0, 3, 4, 5, 6, 7, 8, 9, 1, 0, 3, 4, 5, 6];\n    seasonSchedule[teams[3]] = [8, 9, 1, 2, 0, 4, 5, 6, 7, 8, 9, 1, 2, 0, 4, 5];\n    seasonSchedule[teams[4]] = [7, 8, 9, 1, 2, 3, 0, 5, 6, 7, 8, 9, 1, 2, 3, 0];\n    seasonSchedule[teams[5]] = [6, 7, 8, 9, 1, 2, 3, 4, 0, 6, 7, 8, 9, 1, 2, 3];\n    seasonSchedule[teams[6]] = [5, 0, 7, 8, 9, 1, 2, 3, 4, 5, 0, 7, 8, 9, 1, 2];\n    seasonSchedule[teams[7]] = [4, 5, 6, 0, 8, 9, 1, 2, 3, 4, 5, 6, 0, 8, 9, 1];\n    seasonSchedule[teams[8]] = [3, 4, 5, 6, 7, 0, 9, 1, 2, 3, 4, 5, 6, 7, 0, 9];\n    seasonSchedule[teams[9]] = [2, 3, 4, 5, 6, 7, 8, 0, 1, 2, 3, 4, 5, 6, 7, 8];\n  }\n\n  function setRoster(uint8 _week, uint256 _qbId, uint256 _rbId, uint256 _wr1Id, uint256 _wr2Id, uint256 _teId, uint256 _flexId, uint256 _kId, uint256 _defId, address sender) public {\n    require(msg.sender == league);\n    teamsMap[sender].schedule[_week] = Game({\n      opponent: teams[seasonSchedule[sender][_week]],\n      teamScore: 0,\n      opponentScore: 0,\n      approvalCount: 0,\n      scoresSet: false,\n      roster: Roster({\n        QB: _qbId,\n        RB: _rbId,\n        WR1: _wr1Id,\n        WR2: _wr2Id,\n        TE: _teId,\n        FLEX: _flexId,\n        K: _kId,\n        DEF: _defId\n      })\n    });\n  }\n\n  function setScores(uint8 _week, uint8 _teamScore, uint8 _opponentScore) public {\n    Game storage game = teamsMap[msg.sender].schedule[_week];\n    require(game.scoresSet == false);\n    game.teamScore = _teamScore;\n    game.opponentScore = _opponentScore;\n    game.scoresSet = true;\n  }\n\n  function validateGame(address _team, uint8 _week) public {\n    require(msg.sender != _team);\n    Game storage game = teamsMap[_team].schedule[_week];\n    require(game.scoresSet == true);\n\n    require(game.teamScore == teamsMap[game.opponent].schedule[_week].opponentScore);\n    require(game.opponentScore == teamsMap[game.opponent].schedule[_week].teamScore);\n    game.approvals[msg.sender] = true;\n    game.approvalCount++;\n    if (game.approvalCount == 9) {\n      if (game.teamScore == game.opponentScore) {\n        teamsMap[_team].ties++;\n      }\n      if (game.teamScore > game.opponentScore) {\n        teamsMap[_team].wins++;\n      } else {\n        teamsMap[_team].loses++;\n      }\n    }\n  }\n\n  function getGame(address _team, uint8 _week) public view returns (uint8, uint8) {\n    Game storage game = teamsMap[_team].schedule[_week];\n    return (game.teamScore, game.opponentScore);\n  }\n\n  function teamSnapshot(address _team) public view returns (uint8, uint8, uint8, uint8[16] memory) {\n    Team storage team = teamsMap[_team];\n    return (team.wins, team.loses, team.ties, seasonSchedule[_team]);\n  }\n\n  function leagueSnapshot() public view returns (address[10] memory) {\n    return (teams);\n  }\n\n}\n",
  "sourcePath": "/Users/he/Desktop/decentralized-fantasy-sports/contracts/League.sol",
  "compiler": {
    "name": "solc",
    "version": "0.5.0+commit.1d4f565a.Emscripten.clang"
  },
  "schemaVersion": "3.0.1",
  "updatedAt": "2019-01-28T03:43:50.661Z",
  "devdoc": {
    "methods": {}
  },
  "userdoc": {
    "methods": {}
  }
}