{
  "contractName": "LeagueFactory",
  "abi": [
    {
      "constant": true,
      "inputs": [
        {
          "name": "",
          "type": "uint256"
        }
      ],
      "name": "deployedLeagues",
      "outputs": [
        {
          "name": "",
          "type": "address"
        }
      ],
      "payable": false,
      "stateMutability": "view",
      "type": "function",
      "signature": "0x3eb1f5dd"
    },
    {
      "constant": false,
      "inputs": [
        {
          "name": "_playersLogic",
          "type": "address"
        },
        {
          "name": "_teams",
          "type": "address[10]"
        }
      ],
      "name": "createLeague",
      "outputs": [],
      "payable": false,
      "stateMutability": "nonpayable",
      "type": "function",
      "signature": "0x6c0dcb46"
    },
    {
      "constant": true,
      "inputs": [],
      "name": "getDeployedLeagues",
      "outputs": [
        {
          "name": "",
          "type": "address[]"
        }
      ],
      "payable": false,
      "stateMutability": "view",
      "type": "function",
      "signature": "0x782651e1"
    }
  ],
  "bytecode": "0x608060405234801561001057600080fd5b50615179806100206000396000f3fe608060405260043610610057576000357c0100000000000000000000000000000000000000000000000000000000900463ffffffff1680633eb1f5dd1461005c5780636c0dcb46146100d7578063782651e11461016b575b600080fd5b34801561006857600080fd5b506100956004803603602081101561007f57600080fd5b81019080803590602001909291905050506101d7565b604051808273ffffffffffffffffffffffffffffffffffffffff1673ffffffffffffffffffffffffffffffffffffffff16815260200191505060405180910390f35b3480156100e357600080fd5b5061016960048036036101608110156100fb57600080fd5b81019080803573ffffffffffffffffffffffffffffffffffffffff169060200190929190806101400190600a806020026040519081016040528092919082600a60200280828437600081840152601f19601f8201169050808301925050505050509192919290505050610215565b005b34801561017757600080fd5b50610180610310565b6040518080602001828103825283818151815260200191508051906020019060200280838360005b838110156101c35780820151818401526020810190506101a8565b505050509050019250505060405180910390f35b6000818154811015156101e657fe5b906000526020600020016000915054906101000a900473ffffffffffffffffffffffffffffffffffffffff1681565b6000828261022161039e565b808373ffffffffffffffffffffffffffffffffffffffff1673ffffffffffffffffffffffffffffffffffffffff16815260200182600a60200280838360005b8381101561027b578082015181840152602081019050610260565b5050505090500192505050604051809103906000f0801580156102a2573d6000803e3d6000fd5b50905060008190806001815401808255809150509060018203906000526020600020016000909192909190916101000a81548173ffffffffffffffffffffffffffffffffffffffff021916908373ffffffffffffffffffffffffffffffffffffffff16021790555050505050565b6060600080548060200260200160405190810160405280929190818152602001828054801561039457602002820191906000526020600020905b8160009054906101000a900473ffffffffffffffffffffffffffffffffffffffff1673ffffffffffffffffffffffffffffffffffffffff168152602001906001019080831161034a575b5050505050905090565b604051614d9f806103af8339019056fe60806040526000600560006101000a81548160ff021916908360ff1602179055503480156200002d57600080fd5b506040516101608062004d9f83398101806040526101608110156200005157600080fd5b810190808051906020019092919091905050620000a06301ffc9a77c01000000000000000000000000000000000000000000000000000000000262000507640100000000026401000000009004565b620000dd6380ac58cd7c01000000000000000000000000000000000000000000000000000000000262000507640100000000026401000000009004565b81600860006101000a81548173ffffffffffffffffffffffffffffffffffffffff021916908373ffffffffffffffffffffffffffffffffffffffff16021790555060006013905060006001905060008090505b600a8160ff161015620004fc57838160ff16600a811015156200014f57fe5b6020020151600660008360ff1660ff16815260200190815260200160002060006101000a81548173ffffffffffffffffffffffffffffffffffffffff021916908373ffffffffffffffffffffffffffffffffffffffff160217905550838160ff16600a81101515620001bd57fe5b60200201516006600085840160ff1660ff16815260200190815260200160002060006101000a81548173ffffffffffffffffffffffffffffffffffffffff021916908373ffffffffffffffffffffffffffffffffffffffff160217905550838160ff16600a811015156200022d57fe5b602002015160066000848685010160ff1660ff16815260200190815260200160002060006101000a81548173ffffffffffffffffffffffffffffffffffffffff021916908373ffffffffffffffffffffffffffffffffffffffff160217905550838160ff16600a811015156200029f57fe5b602002015160066000848660020285010160ff1660ff16815260200190815260200160002060006101000a81548173ffffffffffffffffffffffffffffffffffffffff021916908373ffffffffffffffffffffffffffffffffffffffff160217905550838160ff16600a811015156200031457fe5b602002015160066000846002028660020285010160ff1660ff16815260200190815260200160002060006101000a81548173ffffffffffffffffffffffffffffffffffffffff021916908373ffffffffffffffffffffffffffffffffffffffff160217905550838160ff16600a811015156200038c57fe5b602002015160066000846002028660030285010160ff1660ff16815260200190815260200160002060006101000a81548173ffffffffffffffffffffffffffffffffffffffff021916908373ffffffffffffffffffffffffffffffffffffffff160217905550838160ff16600a811015156200040457fe5b602002015160066000846003028660030285010160ff1660ff16815260200190815260200160002060006101000a81548173ffffffffffffffffffffffffffffffffffffffff021916908373ffffffffffffffffffffffffffffffffffffffff160217905550838160ff16600a811015156200047c57fe5b602002015160066000846003028660040285010160ff1660ff16815260200190815260200160002060006101000a81548173ffffffffffffffffffffffffffffffffffffffff021916908373ffffffffffffffffffffffffffffffffffffffff160217905550600283039250600282019150808060010191505062000130565b5050505050620005c5565b63ffffffff7c010000000000000000000000000000000000000000000000000000000002817bffffffffffffffffffffffffffffffffffffffffffffffffffffffff1916141515156200055957600080fd5b6001600080837bffffffffffffffffffffffffffffffffffffffffffffffffffffffff19167bffffffffffffffffffffffffffffffffffffffffffffffffffffffff1916815260200190815260200160002060006101000a81548160ff02191690831515021790555050565b6147ca80620005d56000396000f3fe6080604052600436106200011b576000357c0100000000000000000000000000000000000000000000000000000000900463ffffffff16806301ffc9a71462000120578063081812fc1462000196578063095ea7b3146200021557806309d9cbfb146200027457806323b872dd14620002ce5780633545eaa0146200034d57806342842e0e146200038c57806357a2047f146200040b57806359c5d37e146200048d5780636352211e14620004e057806370a08231146200055f5780637b09366c14620005c8578063a22cb465146200061b578063b88d4fde146200067c578063d9b292971462000795578063e985e9c514620007ef578063f0ac5870146200087c578063f71d96cb146200090f578063fa87540d1462000978575b600080fd5b3480156200012d57600080fd5b506200017c600480360360208110156200014657600080fd5b8101908080357bffffffffffffffffffffffffffffffffffffffffffffffffffffffff19169060200190929190505050620009ac565b604051808215151515815260200191505060405180910390f35b348015620001a357600080fd5b50620001d360048036036020811015620001bc57600080fd5b810190808035906020019092919050505062000a13565b604051808273ffffffffffffffffffffffffffffffffffffffff1673ffffffffffffffffffffffffffffffffffffffff16815260200191505060405180910390f35b3480156200022257600080fd5b5062000272600480360360408110156200023b57600080fd5b81019080803573ffffffffffffffffffffffffffffffffffffffff1690602001909291908035906020019092919050505062000a67565b005b3480156200028157600080fd5b506200028c62000bb3565b604051808273ffffffffffffffffffffffffffffffffffffffff1673ffffffffffffffffffffffffffffffffffffffff16815260200191505060405180910390f35b348015620002db57600080fd5b506200034b60048036036060811015620002f457600080fd5b81019080803573ffffffffffffffffffffffffffffffffffffffff169060200190929190803573ffffffffffffffffffffffffffffffffffffffff1690602001909291908035906020019092919050505062000bd9565b005b3480156200035a57600080fd5b506200038a600480360360208110156200037357600080fd5b810190808035906020019092919050505062000c03565b005b3480156200039957600080fd5b506200040960048036036060811015620003b257600080fd5b81019080803573ffffffffffffffffffffffffffffffffffffffff169060200190929190803573ffffffffffffffffffffffffffffffffffffffff1690602001909291908035906020019092919050505062000d8c565b005b3480156200041857600080fd5b506200044b600480360360208110156200043157600080fd5b81019080803560ff16906020019092919050505062000daf565b604051808273ffffffffffffffffffffffffffffffffffffffff1673ffffffffffffffffffffffffffffffffffffffff16815260200191505060405180910390f35b3480156200049a57600080fd5b50620004de60048036036060811015620004b357600080fd5b8101908080359060200190929190803590602001909291908035906020019092919050505062000de2565b005b348015620004ed57600080fd5b506200051d600480360360208110156200050657600080fd5b8101908080359060200190929190505050620014b4565b604051808273ffffffffffffffffffffffffffffffffffffffff1673ffffffffffffffffffffffffffffffffffffffff16815260200191505060405180910390f35b3480156200056c57600080fd5b50620005b2600480360360208110156200058557600080fd5b81019080803573ffffffffffffffffffffffffffffffffffffffff16906020019092919050505062001533565b6040518082815260200191505060405180910390f35b348015620005d557600080fd5b506200061960048036036060811015620005ee57600080fd5b81019080803590602001909291908035906020019092919080359060200190929190505050620015b8565b005b3480156200062857600080fd5b506200067a600480360360408110156200064157600080fd5b81019080803573ffffffffffffffffffffffffffffffffffffffff16906020019092919080351515906020019092919050505062001779565b005b3480156200068957600080fd5b506200079360048036036080811015620006a257600080fd5b81019080803573ffffffffffffffffffffffffffffffffffffffff169060200190929190803573ffffffffffffffffffffffffffffffffffffffff16906020019092919080359060200190929190803590602001906401000000008111156200070a57600080fd5b8201836020820111156200071d57600080fd5b803590602001918460018302840111640100000000831117156200074057600080fd5b91908080601f016020809104026020016040519081016040528093929190818152602001838380828437600081840152601f19601f820116905080830192505050505050509192919290505050620018b6565b005b348015620007a257600080fd5b50620007ad620018e3565b604051808273ffffffffffffffffffffffffffffffffffffffff1673ffffffffffffffffffffffffffffffffffffffff16815260200191505060405180910390f35b348015620007fc57600080fd5b5062000862600480360360408110156200081557600080fd5b81019080803573ffffffffffffffffffffffffffffffffffffffff169060200190929190803573ffffffffffffffffffffffffffffffffffffffff16906020019092919050505062001909565b604051808215151515815260200191505060405180910390f35b3480156200088957600080fd5b506200090d6004803603610120811015620008a357600080fd5b81019080803560ff16906020019092919080359060200190929190803590602001909291908035906020019092919080359060200190929190803590602001909291908035906020019092919080359060200190929190803590602001909291905050506200199d565b005b3480156200091c57600080fd5b506200094c600480360360208110156200093557600080fd5b810190808035906020019092919050505062001fda565b604051808381526020018260068111156200096357fe5b60ff1681526020019250505060405180910390f35b3480156200098557600080fd5b50620009906200200b565b604051808260ff1660ff16815260200191505060405180910390f35b6000806000837bffffffffffffffffffffffffffffffffffffffffffffffffffffffff19167bffffffffffffffffffffffffffffffffffffffffffffffffffffffff1916815260200190815260200160002060009054906101000a900460ff169050919050565b600062000a20826200201e565b151562000a2c57600080fd5b6002600083815260200190815260200160002060009054906101000a900473ffffffffffffffffffffffffffffffffffffffff169050919050565b600062000a7482620014b4565b90508073ffffffffffffffffffffffffffffffffffffffff168373ffffffffffffffffffffffffffffffffffffffff161415151562000ab257600080fd5b8073ffffffffffffffffffffffffffffffffffffffff163373ffffffffffffffffffffffffffffffffffffffff16148062000af5575062000af4813362001909565b5b151562000b0157600080fd5b826002600084815260200190815260200160002060006101000a81548173ffffffffffffffffffffffffffffffffffffffff021916908373ffffffffffffffffffffffffffffffffffffffff160217905550818373ffffffffffffffffffffffffffffffffffffffff168273ffffffffffffffffffffffffffffffffffffffff167f8c5be1e5ebec7d5bd14f71427d1e84f3dd0314c0f7b2291e5b200ac8c7c3b92560405160405180910390a4505050565b600860009054906101000a900473ffffffffffffffffffffffffffffffffffffffff1681565b62000be5338262002090565b151562000bf157600080fd5b62000bfe8383836200212d565b505050565b6000600860009054906101000a900473ffffffffffffffffffffffffffffffffffffffff1673ffffffffffffffffffffffffffffffffffffffff1660405180807f64726f70506c617965722875696e743235362900000000000000000000000000815250601301905060405180910390208360405160200180837bffffffffffffffffffffffffffffffffffffffffffffffffffffffff19167bffffffffffffffffffffffffffffffffffffffffffffffffffffffff19168152600401828152602001925050506040516020818303038152906040526040518082805190602001908083835b60208310151562000d10578051825260208201915060208101905060208303925062000ce9565b6001836020036101000a038019825116818451168082178552505050505050905001915050600060405180830381855af49150503d806000811462000d72576040519150601f19603f3d011682016040523d82523d6000602084013e62000d77565b606091505b5050905080151562000d8857600080fd5b5050565b62000daa8383836020604051908101604052806000815250620018b6565b505050565b60066020528060005260406000206000915054906101000a900473ffffffffffffffffffffffffffffffffffffffff1681565b6000600860009054906101000a900473ffffffffffffffffffffffffffffffffffffffff1673ffffffffffffffffffffffffffffffffffffffff1660405180807f6472616674506c6179657228627974657333322c75696e743235362c75696e7481526020017f32353629000000000000000000000000000000000000000000000000000000008152506024019050604051809103902085858560405160200180857bffffffffffffffffffffffffffffffffffffffffffffffffffffffff19167bffffffffffffffffffffffffffffffffffffffffffffffffffffffff191681526004018481526020018381526020018281526020019450505050506040516020818303038152906040526040518082805190602001908083835b60208310151562000f25578051825260208201915060208101905060208303925062000efe565b6001836020036101000a038019825116818451168082178552505050505050905001915050600060405180830381855af49150503d806000811462000f87576040519150601f19603f3d011682016040523d82523d6000602084013e62000f8c565b606091505b5050905080151562000f9d57600080fd5b6050600560009054906101000a900460ff1660ff161415620014ae573061014060405190810160405280600660008060ff16815260200190815260200160002060009054906101000a900473ffffffffffffffffffffffffffffffffffffffff1673ffffffffffffffffffffffffffffffffffffffff1673ffffffffffffffffffffffffffffffffffffffff16815260200160066000600160ff16815260200190815260200160002060009054906101000a900473ffffffffffffffffffffffffffffffffffffffff1673ffffffffffffffffffffffffffffffffffffffff1673ffffffffffffffffffffffffffffffffffffffff16815260200160066000600260ff16815260200190815260200160002060009054906101000a900473ffffffffffffffffffffffffffffffffffffffff1673ffffffffffffffffffffffffffffffffffffffff1673ffffffffffffffffffffffffffffffffffffffff16815260200160066000600360ff16815260200190815260200160002060009054906101000a900473ffffffffffffffffffffffffffffffffffffffff1673ffffffffffffffffffffffffffffffffffffffff1673ffffffffffffffffffffffffffffffffffffffff16815260200160066000600460ff16815260200190815260200160002060009054906101000a900473ffffffffffffffffffffffffffffffffffffffff1673ffffffffffffffffffffffffffffffffffffffff1673ffffffffffffffffffffffffffffffffffffffff16815260200160066000600560ff16815260200190815260200160002060009054906101000a900473ffffffffffffffffffffffffffffffffffffffff1673ffffffffffffffffffffffffffffffffffffffff1673ffffffffffffffffffffffffffffffffffffffff16815260200160066000600660ff16815260200190815260200160002060009054906101000a900473ffffffffffffffffffffffffffffffffffffffff1673ffffffffffffffffffffffffffffffffffffffff1673ffffffffffffffffffffffffffffffffffffffff16815260200160066000600760ff16815260200190815260200160002060009054906101000a900473ffffffffffffffffffffffffffffffffffffffff1673ffffffffffffffffffffffffffffffffffffffff1673ffffffffffffffffffffffffffffffffffffffff16815260200160066000600860ff16815260200190815260200160002060009054906101000a900473ffffffffffffffffffffffffffffffffffffffff1673ffffffffffffffffffffffffffffffffffffffff1673ffffffffffffffffffffffffffffffffffffffff16815260200160066000600960ff16815260200190815260200160002060009054906101000a900473ffffffffffffffffffffffffffffffffffffffff1673ffffffffffffffffffffffffffffffffffffffff1673ffffffffffffffffffffffffffffffffffffffff16815250620013e8620026e2565b808373ffffffffffffffffffffffffffffffffffffffff1673ffffffffffffffffffffffffffffffffffffffff16815260200182600a60200280838360005b838110156200144457808201518184015260208101905062001427565b5050505090500192505050604051809103906000f0801580156200146c573d6000803e3d6000fd5b50600960006101000a81548173ffffffffffffffffffffffffffffffffffffffff021916908373ffffffffffffffffffffffffffffffffffffffff1602179055505b50505050565b6000806001600084815260200190815260200160002060009054906101000a900473ffffffffffffffffffffffffffffffffffffffff169050600073ffffffffffffffffffffffffffffffffffffffff168173ffffffffffffffffffffffffffffffffffffffff16141515156200152a57600080fd5b80915050919050565b60008073ffffffffffffffffffffffffffffffffffffffff168273ffffffffffffffffffffffffffffffffffffffff16141515156200157157600080fd5b600360008373ffffffffffffffffffffffffffffffffffffffff1673ffffffffffffffffffffffffffffffffffffffff168152602001908152602001600020549050919050565b6000600860009054906101000a900473ffffffffffffffffffffffffffffffffffffffff1673ffffffffffffffffffffffffffffffffffffffff1660405180807f616464506c6179657228627974657333322c75696e743235362c75696e74323581526020017f36290000000000000000000000000000000000000000000000000000000000008152506022019050604051809103902085858560405160200180857bffffffffffffffffffffffffffffffffffffffffffffffffffffffff19167bffffffffffffffffffffffffffffffffffffffffffffffffffffffff191681526004018481526020018381526020018281526020019450505050506040516020818303038152906040526040518082805190602001908083835b602083101515620016fb5780518252602082019150602081019050602083039250620016d4565b6001836020036101000a038019825116818451168082178552505050505050905001915050600060405180830381855af49150503d80600081146200175d576040519150601f19603f3d011682016040523d82523d6000602084013e62001762565b606091505b505090508015156200177357600080fd5b50505050565b3373ffffffffffffffffffffffffffffffffffffffff168273ffffffffffffffffffffffffffffffffffffffff1614151515620017b557600080fd5b80600460003373ffffffffffffffffffffffffffffffffffffffff1673ffffffffffffffffffffffffffffffffffffffff16815260200190815260200160002060008473ffffffffffffffffffffffffffffffffffffffff1673ffffffffffffffffffffffffffffffffffffffff16815260200190815260200160002060006101000a81548160ff0219169083151502179055508173ffffffffffffffffffffffffffffffffffffffff163373ffffffffffffffffffffffffffffffffffffffff167f17307eab39ab6107e8899845ad3d59bd9653f200f220920489ca2b5937696c3183604051808215151515815260200191505060405180910390a35050565b620018c384848462000bd9565b620018d1848484846200239c565b1515620018dd57600080fd5b50505050565b600960009054906101000a900473ffffffffffffffffffffffffffffffffffffffff1681565b6000600460008473ffffffffffffffffffffffffffffffffffffffff1673ffffffffffffffffffffffffffffffffffffffff16815260200190815260200160002060008373ffffffffffffffffffffffffffffffffffffffff1673ffffffffffffffffffffffffffffffffffffffff16815260200190815260200160002060009054906101000a900460ff16905092915050565b3373ffffffffffffffffffffffffffffffffffffffff16620019bf89620014b4565b73ffffffffffffffffffffffffffffffffffffffff16141515620019e257600080fd5b60016006811115620019f057fe5b600760008a815260200190815260200160002060010160009054906101000a900460ff16600681111562001a2057fe5b14151562001a2d57600080fd5b3373ffffffffffffffffffffffffffffffffffffffff1662001a4f88620014b4565b73ffffffffffffffffffffffffffffffffffffffff1614151562001a7257600080fd5b6002600681111562001a8057fe5b6007600089815260200190815260200160002060010160009054906101000a900460ff16600681111562001ab057fe5b14151562001abd57600080fd5b3373ffffffffffffffffffffffffffffffffffffffff1662001adf87620014b4565b73ffffffffffffffffffffffffffffffffffffffff1614151562001b0257600080fd5b6003600681111562001b1057fe5b6007600088815260200190815260200160002060010160009054906101000a900460ff16600681111562001b4057fe5b14151562001b4d57600080fd5b3373ffffffffffffffffffffffffffffffffffffffff1662001b6f86620014b4565b73ffffffffffffffffffffffffffffffffffffffff1614151562001b9257600080fd5b6003600681111562001ba057fe5b6007600087815260200190815260200160002060010160009054906101000a900460ff16600681111562001bd057fe5b14151562001bdd57600080fd5b3373ffffffffffffffffffffffffffffffffffffffff1662001bff85620014b4565b73ffffffffffffffffffffffffffffffffffffffff1614151562001c2257600080fd5b6004600681111562001c3057fe5b6007600086815260200190815260200160002060010160009054906101000a900460ff16600681111562001c6057fe5b14151562001c6d57600080fd5b3373ffffffffffffffffffffffffffffffffffffffff1662001c8f84620014b4565b73ffffffffffffffffffffffffffffffffffffffff1614151562001cb257600080fd5b6002600681111562001cc057fe5b6007600085815260200190815260200160002060010160009054906101000a900460ff16600681111562001cf057fe5b148062001d3857506003600681111562001d0657fe5b6007600085815260200190815260200160002060010160009054906101000a900460ff16600681111562001d3657fe5b145b8062001d7f57506004600681111562001d4d57fe5b6007600085815260200190815260200160002060010160009054906101000a900460ff16600681111562001d7d57fe5b145b151562001d8b57600080fd5b3373ffffffffffffffffffffffffffffffffffffffff1662001dad83620014b4565b73ffffffffffffffffffffffffffffffffffffffff1614151562001dd057600080fd5b6005600681111562001dde57fe5b6007600084815260200190815260200160002060010160009054906101000a900460ff16600681111562001e0e57fe5b14151562001e1b57600080fd5b3373ffffffffffffffffffffffffffffffffffffffff1662001e3d82620014b4565b73ffffffffffffffffffffffffffffffffffffffff1614151562001e6057600080fd5b60068081111562001e6d57fe5b6007600083815260200190815260200160002060010160009054906101000a900460ff16600681111562001e9d57fe5b14151562001eaa57600080fd5b600960009054906101000a900473ffffffffffffffffffffffffffffffffffffffff1673ffffffffffffffffffffffffffffffffffffffff16634a9140c58a8a8a8a8a8a8a8a8a336040518b63ffffffff167c0100000000000000000000000000000000000000000000000000000000028152600401808b60ff1660ff1681526020018a81526020018981526020018881526020018781526020018681526020018581526020018481526020018381526020018273ffffffffffffffffffffffffffffffffffffffff1673ffffffffffffffffffffffffffffffffffffffff1681526020019a5050505050505050505050600060405180830381600087803b15801562001fb657600080fd5b505af115801562001fcb573d6000803e3d6000fd5b50505050505050505050505050565b60076020528060005260406000206000915090508060000154908060010160009054906101000a900460ff16905082565b600560009054906101000a900460ff1681565b6000806001600084815260200190815260200160002060009054906101000a900473ffffffffffffffffffffffffffffffffffffffff169050600073ffffffffffffffffffffffffffffffffffffffff168173ffffffffffffffffffffffffffffffffffffffff161415915050919050565b6000806200209e83620014b4565b90508073ffffffffffffffffffffffffffffffffffffffff168473ffffffffffffffffffffffffffffffffffffffff1614806200211057508373ffffffffffffffffffffffffffffffffffffffff16620020f88462000a13565b73ffffffffffffffffffffffffffffffffffffffff16145b8062002124575062002123818562001909565b5b91505092915050565b8273ffffffffffffffffffffffffffffffffffffffff166200214f82620014b4565b73ffffffffffffffffffffffffffffffffffffffff161415156200217257600080fd5b600073ffffffffffffffffffffffffffffffffffffffff168273ffffffffffffffffffffffffffffffffffffffff1614151515620021af57600080fd5b620021ba81620025c9565b6200220f6001600360008673ffffffffffffffffffffffffffffffffffffffff1673ffffffffffffffffffffffffffffffffffffffff168152602001908152602001600020546200268a90919063ffffffff16565b600360008573ffffffffffffffffffffffffffffffffffffffff1673ffffffffffffffffffffffffffffffffffffffff16815260200190815260200160002081905550620022a76001600360008573ffffffffffffffffffffffffffffffffffffffff1673ffffffffffffffffffffffffffffffffffffffff16815260200190815260200160002054620026ad90919063ffffffff16565b600360008473ffffffffffffffffffffffffffffffffffffffff1673ffffffffffffffffffffffffffffffffffffffff16815260200190815260200160002081905550816001600083815260200190815260200160002060006101000a81548173ffffffffffffffffffffffffffffffffffffffff021916908373ffffffffffffffffffffffffffffffffffffffff160217905550808273ffffffffffffffffffffffffffffffffffffffff168473ffffffffffffffffffffffffffffffffffffffff167fddf252ad1be2c89b69c2b068fc378daa952ba7f163c4a11628f55a4df523b3ef60405160405180910390a4505050565b6000620023bf8473ffffffffffffffffffffffffffffffffffffffff16620026cf565b1515620023d05760019050620025c1565b60008473ffffffffffffffffffffffffffffffffffffffff1663150b7a02338887876040518563ffffffff167c0100000000000000000000000000000000000000000000000000000000028152600401808573ffffffffffffffffffffffffffffffffffffffff1673ffffffffffffffffffffffffffffffffffffffff1681526020018473ffffffffffffffffffffffffffffffffffffffff1673ffffffffffffffffffffffffffffffffffffffff16815260200183815260200180602001828103825283818151815260200191508051906020019080838360005b83811015620024c9578082015181840152602081019050620024ac565b50505050905090810190601f168015620024f75780820380516001836020036101000a031916815260200191505b5095505050505050602060405180830381600087803b1580156200251a57600080fd5b505af11580156200252f573d6000803e3d6000fd5b505050506040513d60208110156200254657600080fd5b8101908080519060200190929190505050905063150b7a027c0100000000000000000000000000000000000000000000000000000000027bffffffffffffffffffffffffffffffffffffffffffffffffffffffff1916817bffffffffffffffffffffffffffffffffffffffffffffffffffffffff1916149150505b949350505050565b600073ffffffffffffffffffffffffffffffffffffffff166002600083815260200190815260200160002060009054906101000a900473ffffffffffffffffffffffffffffffffffffffff1673ffffffffffffffffffffffffffffffffffffffff16141515620026875760006002600083815260200190815260200160002060006101000a81548173ffffffffffffffffffffffffffffffffffffffff021916908373ffffffffffffffffffffffffffffffffffffffff1602179055505b50565b60008282111515156200269c57600080fd5b600082840390508091505092915050565b6000808284019050838110151515620026c557600080fd5b8091505092915050565b600080823b905060008111915050919050565b6040516120ab80620026f48339019056fe60806040523480156200001157600080fd5b5060405161016080620020ab83398101806040526101608110156200003557600080fd5b81019080805190602001909291909190505081600260006101000a81548173ffffffffffffffffffffffffffffffffffffffff021916908373ffffffffffffffffffffffffffffffffffffffff16021790555080600390600a6200009b92919062000d87565b5060008090505b600a8160ff161015620001bd57606060405190810160405280600060ff168152602001600060ff168152602001600060ff1681525060008060038460ff16600a81101515620000ed57fe5b0160009054906101000a900473ffffffffffffffffffffffffffffffffffffffff1673ffffffffffffffffffffffffffffffffffffffff1673ffffffffffffffffffffffffffffffffffffffff16815260200190815260200160002060008201518160000160006101000a81548160ff021916908360ff16021790555060208201518160000160016101000a81548160ff021916908360ff16021790555060408201518160000160026101000a81548160ff021916908360ff1602179055509050508080600101915050620000a2565b5061020060405190810160405280600160ff168152602001600660ff168152602001600260ff168152602001600760ff168152602001600360ff168152602001600860ff168152602001600460ff168152602001600960ff168152602001600560ff168152602001600160ff168152602001600660ff168152602001600260ff168152602001600760ff168152602001600360ff168152602001600860ff168152602001600460ff168152506001600060036000600a811015156200027e57fe5b0160009054906101000a900473ffffffffffffffffffffffffffffffffffffffff1673ffffffffffffffffffffffffffffffffffffffff1673ffffffffffffffffffffffffffffffffffffffff168152602001908152602001600020906010620002ea92919062000e09565b5061020060405190810160405280600060ff168152602001600260ff168152602001600360ff168152602001600460ff168152602001600560ff168152602001600660ff168152602001600760ff168152602001600860ff168152602001600960ff168152602001600060ff168152602001600260ff168152602001600360ff168152602001600460ff168152602001600560ff168152602001600660ff168152602001600760ff168152506001600060036001600a81101515620003ab57fe5b0160009054906101000a900473ffffffffffffffffffffffffffffffffffffffff1673ffffffffffffffffffffffffffffffffffffffff1673ffffffffffffffffffffffffffffffffffffffff1681526020019081526020016000209060106200041792919062000e09565b5061020060405190810160405280600960ff168152602001600160ff168152602001600060ff168152602001600360ff168152602001600460ff168152602001600560ff168152602001600660ff168152602001600760ff168152602001600860ff168152602001600960ff168152602001600160ff168152602001600060ff168152602001600360ff168152602001600460ff168152602001600560ff168152602001600660ff168152506001600060036002600a81101515620004d857fe5b0160009054906101000a900473ffffffffffffffffffffffffffffffffffffffff1673ffffffffffffffffffffffffffffffffffffffff1673ffffffffffffffffffffffffffffffffffffffff1681526020019081526020016000209060106200054492919062000e09565b5061020060405190810160405280600860ff168152602001600960ff168152602001600160ff168152602001600260ff168152602001600060ff168152602001600460ff168152602001600560ff168152602001600660ff168152602001600760ff168152602001600860ff168152602001600960ff168152602001600160ff168152602001600260ff168152602001600060ff168152602001600460ff168152602001600560ff1681525060016000600380600a811015156200060457fe5b0160009054906101000a900473ffffffffffffffffffffffffffffffffffffffff1673ffffffffffffffffffffffffffffffffffffffff1673ffffffffffffffffffffffffffffffffffffffff1681526020019081526020016000209060106200067092919062000e09565b5061020060405190810160405280600760ff168152602001600860ff168152602001600960ff168152602001600160ff168152602001600260ff168152602001600360ff168152602001600060ff168152602001600560ff168152602001600660ff168152602001600760ff168152602001600860ff168152602001600960ff168152602001600160ff168152602001600260ff168152602001600360ff168152602001600060ff168152506001600060036004600a811015156200073157fe5b0160009054906101000a900473ffffffffffffffffffffffffffffffffffffffff1673ffffffffffffffffffffffffffffffffffffffff1673ffffffffffffffffffffffffffffffffffffffff1681526020019081526020016000209060106200079d92919062000e09565b5061020060405190810160405280600660ff168152602001600760ff168152602001600860ff168152602001600960ff168152602001600160ff168152602001600260ff168152602001600360ff168152602001600460ff168152602001600060ff168152602001600660ff168152602001600760ff168152602001600860ff168152602001600960ff168152602001600160ff168152602001600260ff168152602001600360ff168152506001600060036005600a811015156200085e57fe5b0160009054906101000a900473ffffffffffffffffffffffffffffffffffffffff1673ffffffffffffffffffffffffffffffffffffffff1673ffffffffffffffffffffffffffffffffffffffff168152602001908152602001600020906010620008ca92919062000e09565b5061020060405190810160405280600560ff168152602001600060ff168152602001600760ff168152602001600860ff168152602001600960ff168152602001600160ff168152602001600260ff168152602001600360ff168152602001600460ff168152602001600560ff168152602001600060ff168152602001600760ff168152602001600860ff168152602001600960ff168152602001600160ff168152602001600260ff168152506001600060036006600a811015156200098b57fe5b0160009054906101000a900473ffffffffffffffffffffffffffffffffffffffff1673ffffffffffffffffffffffffffffffffffffffff1673ffffffffffffffffffffffffffffffffffffffff168152602001908152602001600020906010620009f792919062000e09565b5061020060405190810160405280600460ff168152602001600560ff168152602001600660ff168152602001600060ff168152602001600860ff168152602001600960ff168152602001600160ff168152602001600260ff168152602001600360ff168152602001600460ff168152602001600560ff168152602001600660ff168152602001600060ff168152602001600860ff168152602001600960ff168152602001600160ff168152506001600060036007600a8110151562000ab857fe5b0160009054906101000a900473ffffffffffffffffffffffffffffffffffffffff1673ffffffffffffffffffffffffffffffffffffffff1673ffffffffffffffffffffffffffffffffffffffff16815260200190815260200160002090601062000b2492919062000e09565b5061020060405190810160405280600360ff168152602001600460ff168152602001600560ff168152602001600660ff168152602001600760ff168152602001600060ff168152602001600960ff168152602001600160ff168152602001600260ff168152602001600360ff168152602001600460ff168152602001600560ff168152602001600660ff168152602001600760ff168152602001600060ff168152602001600960ff168152506001600060036008600a8110151562000be557fe5b0160009054906101000a900473ffffffffffffffffffffffffffffffffffffffff1673ffffffffffffffffffffffffffffffffffffffff1673ffffffffffffffffffffffffffffffffffffffff16815260200190815260200160002090601062000c5192919062000e09565b5061020060405190810160405280600260ff168152602001600360ff168152602001600460ff168152602001600560ff168152602001600660ff168152602001600760ff168152602001600860ff168152602001600060ff168152602001600160ff168152602001600260ff168152602001600360ff168152602001600460ff168152602001600560ff168152602001600660ff168152602001600760ff168152602001600860ff168152506001600060036009600a8110151562000d1257fe5b0160009054906101000a900473ffffffffffffffffffffffffffffffffffffffff1673ffffffffffffffffffffffffffffffffffffffff1673ffffffffffffffffffffffffffffffffffffffff16815260200190815260200160002090601062000d7e92919062000e09565b50505062000f23565b82600a810192821562000df6579160200282015b8281111562000df55782518260006101000a81548173ffffffffffffffffffffffffffffffffffffffff021916908373ffffffffffffffffffffffffffffffffffffffff1602179055509160200191906001019062000d9b565b5b50905062000e05919062000eaa565b5090565b826010601f0160209004810192821562000e975791602002820160005b8382111562000e6657835183826101000a81548160ff021916908360ff160217905550926020019260010160208160000104928301926001030262000e26565b801562000e955782816101000a81549060ff021916905560010160208160000104928301926001030262000e66565b505b50905062000ea6919062000ef0565b5090565b62000eed91905b8082111562000ee957600081816101000a81549073ffffffffffffffffffffffffffffffffffffffff02191690555060010162000eb1565b5090565b90565b62000f2091905b8082111562000f1c57600081816101000a81549060ff02191690555060010162000ef7565b5090565b90565b6111788062000f336000396000f3fe6080604052600436106100a4576000357c0100000000000000000000000000000000000000000000000000000000900463ffffffff1680633ed2b77a146100a95780634a9140c514610124578063701fe18b146101d35780638e0ec708146102585780639acfe5c01461030c578063c972a6da1461035f578063d22bc5e4146103e4578063d9b292971461043c578063dd6a891a14610493578063f6b2839a14610508575b600080fd5b3480156100b557600080fd5b506100e2600480360360208110156100cc57600080fd5b8101908080359060200190929190505050610566565b604051808273ffffffffffffffffffffffffffffffffffffffff1673ffffffffffffffffffffffffffffffffffffffff16815260200191505060405180910390f35b34801561013057600080fd5b506101d1600480360361014081101561014857600080fd5b81019080803560ff1690602001909291908035906020019092919080359060200190929190803590602001909291908035906020019092919080359060200190929190803590602001909291908035906020019092919080359060200190929190803573ffffffffffffffffffffffffffffffffffffffff16906020019092919050505061059b565b005b3480156101df57600080fd5b5061022f600480360360408110156101f657600080fd5b81019080803573ffffffffffffffffffffffffffffffffffffffff169060200190929190803560ff1690602001909291905050506108a7565b604051808360ff1660ff1681526020018260ff1660ff1681526020019250505060405180910390f35b34801561026457600080fd5b506102a76004803603602081101561027b57600080fd5b81019080803573ffffffffffffffffffffffffffffffffffffffff169060200190929190505050610936565b604051808560ff1660ff1681526020018460ff1660ff1681526020018360ff1660ff16815260200182601060200280838360005b838110156102f65780820151818401526020810190506102db565b5050505090500194505050505060405180910390f35b34801561031857600080fd5b50610321610a6f565b6040518082600a60200280838360005b8381101561034c578082015181840152602081019050610331565b5050505090500191505060405180910390f35b34801561036b57600080fd5b506103ae6004803603602081101561038257600080fd5b81019080803573ffffffffffffffffffffffffffffffffffffffff169060200190929190505050610af0565b604051808460ff1660ff1681526020018360ff1660ff1681526020018260ff1660ff168152602001935050505060405180910390f35b3480156103f057600080fd5b5061043a6004803603606081101561040757600080fd5b81019080803560ff169060200190929190803560ff169060200190929190803560ff169060200190929190505050610b41565b005b34801561044857600080fd5b50610451610c1e565b604051808273ffffffffffffffffffffffffffffffffffffffff1673ffffffffffffffffffffffffffffffffffffffff16815260200191505060405180910390f35b34801561049f57600080fd5b506104ec600480360360408110156104b657600080fd5b81019080803573ffffffffffffffffffffffffffffffffffffffff16906020019092919080359060200190929190505050610c44565b604051808260ff1660ff16815260200191505060405180910390f35b34801561051457600080fd5b506105646004803603604081101561052b57600080fd5b81019080803573ffffffffffffffffffffffffffffffffffffffff169060200190929190803560ff169060200190929190505050610c7c565b005b600381600a8110151561057557fe5b016000915054906101000a900473ffffffffffffffffffffffffffffffffffffffff1681565b600260009054906101000a900473ffffffffffffffffffffffffffffffffffffffff1673ffffffffffffffffffffffffffffffffffffffff163373ffffffffffffffffffffffffffffffffffffffff161415156105f757600080fd5b60c0604051908101604052806003600160008573ffffffffffffffffffffffffffffffffffffffff1673ffffffffffffffffffffffffffffffffffffffff1681526020019081526020016000208d60ff1660108110151561065457fe5b602091828204019190069054906101000a900460ff1660ff16600a8110151561067957fe5b0160009054906101000a900473ffffffffffffffffffffffffffffffffffffffff1673ffffffffffffffffffffffffffffffffffffffff168152602001600060ff168152602001600060ff168152602001600060ff168152602001600015158152602001610100604051908101604052808c81526020018b81526020018a8152602001898152602001888152602001878152602001868152602001858152508152506000808373ffffffffffffffffffffffffffffffffffffffff1673ffffffffffffffffffffffffffffffffffffffff16815260200190815260200160002060010160008c60ff1660ff16815260200190815260200160002060008201518160000160006101000a81548173ffffffffffffffffffffffffffffffffffffffff021916908373ffffffffffffffffffffffffffffffffffffffff16021790555060208201518160000160146101000a81548160ff021916908360ff16021790555060408201518160000160156101000a81548160ff021916908360ff16021790555060608201518160000160166101000a81548160ff021916908360ff16021790555060808201518160000160176101000a81548160ff02191690831515021790555060a082015181600101600082015181600001556020820151816001015560408201518160020155606082015181600301556080820151816004015560a0820151816005015560c0820151816006015560e08201518160070155505090505050505050505050505050565b60008060008060008673ffffffffffffffffffffffffffffffffffffffff1673ffffffffffffffffffffffffffffffffffffffff16815260200190815260200160002060010160008560ff1660ff16815260200190815260200160002090508060000160149054906101000a900460ff168160000160159054906101000a900460ff1692509250509250929050565b6000806000610943611104565b60008060008773ffffffffffffffffffffffffffffffffffffffff1673ffffffffffffffffffffffffffffffffffffffff16815260200190815260200160002090508060000160009054906101000a900460ff168160000160019054906101000a900460ff168260000160029054906101000a900460ff16600160008a73ffffffffffffffffffffffffffffffffffffffff1673ffffffffffffffffffffffffffffffffffffffff16815260200190815260200160002080601080602002604051908101604052809291908260108015610a58576020028201916000905b82829054906101000a900460ff1660ff1681526020019060010190602082600001049283019260010382029150808411610a215790505b505050505090509450945094509450509193509193565b610a77611128565b6003600a806020026040519081016040528092919082600a8015610ae6576020028201915b8160009054906101000a900473ffffffffffffffffffffffffffffffffffffffff1673ffffffffffffffffffffffffffffffffffffffff1681526020019060010190808311610a9c575b5050505050905090565b60006020528060005260406000206000915090508060000160009054906101000a900460ff16908060000160019054906101000a900460ff16908060000160029054906101000a900460ff16905083565b60008060003373ffffffffffffffffffffffffffffffffffffffff1673ffffffffffffffffffffffffffffffffffffffff16815260200190815260200160002060010160008560ff1660ff1681526020019081526020016000209050600015158160000160179054906101000a900460ff161515141515610bc157600080fd5b828160000160146101000a81548160ff021916908360ff160217905550818160000160156101000a81548160ff021916908360ff16021790555060018160000160176101000a81548160ff02191690831515021790555050505050565b600260009054906101000a900473ffffffffffffffffffffffffffffffffffffffff1681565b600160205281600052604060002081601081101515610c5f57fe5b60209182820401919006915091509054906101000a900460ff1681565b8173ffffffffffffffffffffffffffffffffffffffff163373ffffffffffffffffffffffffffffffffffffffff1614151515610cb757600080fd5b60008060008473ffffffffffffffffffffffffffffffffffffffff1673ffffffffffffffffffffffffffffffffffffffff16815260200190815260200160002060010160008360ff1660ff1681526020019081526020016000209050600115158160000160179054906101000a900460ff161515141515610d3757600080fd5b6000808260000160009054906101000a900473ffffffffffffffffffffffffffffffffffffffff1673ffffffffffffffffffffffffffffffffffffffff1673ffffffffffffffffffffffffffffffffffffffff16815260200190815260200160002060010160008360ff1660ff16815260200190815260200160002060000160159054906101000a900460ff1660ff168160000160149054906101000a900460ff1660ff16141515610de857600080fd5b6000808260000160009054906101000a900473ffffffffffffffffffffffffffffffffffffffff1673ffffffffffffffffffffffffffffffffffffffff1673ffffffffffffffffffffffffffffffffffffffff16815260200190815260200160002060010160008360ff1660ff16815260200190815260200160002060000160149054906101000a900460ff1660ff168160000160159054906101000a900460ff1660ff16141515610e9957600080fd5b60018160090160003373ffffffffffffffffffffffffffffffffffffffff1673ffffffffffffffffffffffffffffffffffffffff16815260200190815260200160002060006101000a81548160ff02191690831515021790555080600001601681819054906101000a900460ff168092919060010191906101000a81548160ff021916908360ff1602179055505060098160000160169054906101000a900460ff1660ff1614156110ff578060000160159054906101000a900460ff1660ff168160000160149054906101000a900460ff1660ff161415610fe6576000808473ffffffffffffffffffffffffffffffffffffffff1673ffffffffffffffffffffffffffffffffffffffff168152602001908152602001600020600001600281819054906101000a900460ff168092919060010191906101000a81548160ff021916908360ff160217905550505b8060000160159054906101000a900460ff1660ff168160000160149054906101000a900460ff1660ff16111561108c576000808473ffffffffffffffffffffffffffffffffffffffff1673ffffffffffffffffffffffffffffffffffffffff168152602001908152602001600020600001600081819054906101000a900460ff168092919060010191906101000a81548160ff021916908360ff160217905550506110fe565b6000808473ffffffffffffffffffffffffffffffffffffffff1673ffffffffffffffffffffffffffffffffffffffff168152602001908152602001600020600001600181819054906101000a900460ff168092919060010191906101000a81548160ff021916908360ff160217905550505b5b505050565b61020060405190810160405280601090602082028038833980820191505090505090565b61014060405190810160405280600a9060208202803883398082019150509050509056fea165627a7a72305820bc66e67f27e9dd4d9591434cb2261768a0e4a4972513367b4edce40b432ab1720029a165627a7a72305820d1419312ce15dbf7f7cc05d442bfff97d80995a4a64834d6727d4e65b59285780029a165627a7a72305820a8523c6e357ca48aaab4029a1d69e67fbf33353192e783e9369d2af7eb93ac4c0029",
  "source": "pragma solidity ^0.5.0;\n\nimport './Players.sol';\n\ncontract LeagueFactory {\n  Players[] public deployedLeagues;\n  function createLeague(address _playersLogic, address[10] memory _teams) public {\n    Players playersContract = new Players(_playersLogic, _teams);\n    deployedLeagues.push(playersContract);\n  }\n  function getDeployedLeagues() public view returns (Players[] memory) {\n    return deployedLeagues;\n  }\n}\n",
  "sourcePath": "/Users/he/Desktop/decentralized-fantasy-sports/contracts/LeagueFactory.sol",
  "compiler": {
    "name": "solc",
    "version": "0.5.0+commit.1d4f565a.Emscripten.clang"
  },
  "schemaVersion": "3.0.1",
  "updatedAt": "2019-01-28T03:43:49.232Z",
  "devdoc": {
    "methods": {}
  },
  "userdoc": {
    "methods": {}
  }
}